:1000000000800020BD010000C10600008D06000038
:100010008D0600008D0600008D0600008D06000094
:100020008D0600008D0600008D060000C106000050
:10003000C10600008D060000711600003517000093
:10004000C1060000C1060000C1060000C106000094
:10005000C1060000C1060000C1060000C106000084
:10006000C1060000C1060000C1060000C106000074
:10007000C1060000C1060000C1060000C106000064
:10008000C1060000C1060000C1060000C106000054
:10009000C1060000C1060000C1060000C106000044
:1000A000C1060000C1060000C1060000C106000034
:1000B000C1060000C1060000C1060000C106000024
:1000C000C1060000C1060000C1060000C106000014
:1000D000C1060000C1060000C1060000C106000004
:1000E000C1060000C1060000C1060000C1060000F4
:1000F000C106000025180000C106000041190000DB
:10010000C10600005D1A0000C1060000C106000023
:10011000C1060000C1060000C1060000C1060000C3
:10012000C1060000C1060000C1060000C1060000B3
:10013000C1060000C1060000C1060000C1060000A3
:10014000C1060000C1060000C1060000C106000093
:10015000C1060000C1060000C1060000C106000083
:10016000C10600009D0B0000C1060000C106000092
:10017000C1060000C1060000C1060000C106000063
:10018000C1060000C1060000C1060000C106000053
:10019000C1060000C1060000C1060000C106000043
:1001A000C1060000C1060000C1060000C106000033
:1001B000C1060000C1060000C1060000564B4CF20B
:1001C000205210B51A804DF628121A8000BF00BFC9
:1001D00000F07AFA514B4FF010621A60504A9A6060
:1001E000504ADA60504A136813F4807301BF4F49D4
:1001F0000B604FF4A85313604D4B4E491A7810070B
:1002000042BF1A7842F008021A704B4B2A221A7029
:100210004A4A4B4B8B4204D252F8040F43F8040B6A
:10022000F8E7484B484A0021934202D243F8041BA6
:10023000FAE7464A4648002350F8231042F82310B4
:1002400001336F2BF8D1434B434A802103F8011B44
:100250009342FBD1414B3D4A1A60414B8A221A70AE
:10026000A3F5805324225A70A0221A709A7991071C
:10027000FCD59A79D206FCD43A4A937903F00C0360
:10028000082B384BF9D103221A7140225A719A79FE
:100290009406FCD533498A79324B5006FBD5324A55
:1002A000324911600221516020221A709A7902F0BD
:1002B0000C020C2AFAD12E4B2E4A1A602E4B2F4AD2
:1002C0001A6000225A60072243F8042C2C4AC3F813
:1002D0000C2D62B600F046FB144B1B68DA0705D5FF
:1002E000284800F031FA284B284A1A60284B1B781E
:1002F0005B0609D5244C254B22689A4204D121483B
:1003000000F022FA0023236001F04EFC00F0E2F935
:1003100000F0B3F9FEE700BF0E2005403080044036
:10032000823F04000100002B10D0034014D0034092
:1003300002D00740D491FF1F00E00740C426000010
:100340002087FF1FD491FF1F7095FF1F0082FF1FA2
:100350000000000000E400E05FE400E008ED00E0E1
:100360000050064000400640448004400000030165
:1003700004800440C010050014E000E0FF76010096
:100380000000202033F7455B1CE00340A5C3945ACE
:1003900000F00740FFFFFFFFFFFFFFFFFFFFFFFF32
:1003A000FFFFFFFFFFFFFFFFFFFFFFFFFFFFFFFF5D
:1003B000FFFFFFFFFFFFFFFFFFFFFFFFFFFFFFFF4D
:1003C000FFFFFFFFFFFFFFFFFFFFFFFFFFFFFFFF3D
:1003D000FFFFFFFFFFFFFFFFFFFFFFFFFFFFFFFF2D
:1003E000FFFFFFFFFFFFFFFFFFFFFFFFFFFFFFFF1D
:1003F000FFFFFFFFFFFFFFFFFFFFFFFFFFFFFFFF0D
:10040000FFFFFFFFFFFFFFFFFFFFFFFFDEF9FFFF23
:1004100010B5054C237833B9044B13B10448AFF33E
:1004200000800123237010BDD491FF1F0000000045
:10043000C8260000084B10B51BB108490848AFF3A7
:1004400000800848036803B910BD074B002BFBD0A0
:10045000BDE81040184700BF00000000D891FF1F02
:10046000C8260000D491FF1F0000000010B50368EB
:10047000017A1C7843681A78437A1A40837A0C42CE
:1004800003F0030318BF43F004030AB143F0080369
:100490009A10013B82720D2B14D8DFE803F0070A93
:1004A0000D0A1310070710130A0D0A07C36801335A
:1004B00007E0C368013B04E0C368023301E0C3689E
:1004C000023BC36010BDFFFF08B5024B9868FFF701
:1004D000CDFF08BD0492FF1F08B5024B5868FFF717
:1004E000C5FF08BD0492FF1F08B51621074800F09C
:1004F0005FFF074800F06EF801210D2000F054F96D
:1005000001210D20BDE8084000F02EB9FC240000B8
:10051000E088FF1F10B50A4C237C012B04D872B66B
:100520002046FFF7A3FF00E072B6E16862B6054817
:1005300000F09BF80348BDE8104000F04BB800BF46
:10054000F091FF1FE088FF1F38B50221012000F065
:100550002BF90221084600F027F9194A194C936833
:1005600003F500712160012121721269617202F5A7
:1005700000700021E16060604FF47A410139FDD1E3
:1005800093F8003292F800220F4D10496C6003F08E
:100590000103D20744BF43F00203DBB2042201206F
:1005A000A37200F033F901230422094923740220C5
:1005B000AC6000F02BF9237C0133237438BD00BFFD
:1005C00018250000F091FF1F0492FF1FD9040000BE
:1005D000C904000007B5064B1B88ADF8043003685A
:1005E00002225B6801A9984703B05DF804FB00BFD5
:1005F0001325000070B505468AB022B90368C9B258
:100600001B6898472FE0012A08BF0A2209B1212060
:1006100004E030228DF82520212014E0B1FBF2F611
:1006200002FB1611CCB2092994BF04F1300104F188
:1006300037010AAC0444C9B204F8241C314616B18F
:100640000138C0B2EAE733B10138C0B20AAB0344A3
:100650002D2203F8242C2B6801A9C0F122020144A9
:100660005B68284698470AB070BD0029BABF494266
:100670002D2300230A22FFF7BDBF08B5FFF734FF83
:10068000FFF748FF00F086FFFAE7FFFF08B50B4DC4
:100690002C462B68580301D500F080FA23685905D1
:1006A00001D501F0BFF823681A0501D501F048F91A
:1006B0002368DB04EDD501F0D1F9EAE7348004408A
:1006C00008B5FFF7E3FFFFFF014B10221A807047C8
:1006D000002005407047FFFF094908B50B6868B165
:1006E0006A461844A2F58052904206D301F056FAA9
:1006F0000C2303604FF0FF3008BD0860184608BDAA
:10070000FC87FF1F30B503460020B3FBF2F402FB69
:100710001433092B94BF30333733DBB20B542346E9
:100720000CB10130F1E70A1823465470C41AA342F1
:1007300006DACC5C1578CD5402F801490133F5E7AF
:10074000084630BD7047FFFF044B054900221A6080
:100750000A60044A106010221A60704714D00340E7
:1007600004D0034000D00340212810B518D80D4B09
:1007700053F8302092F880423CB1012311B182F845
:10078000803010BD82F8003110BD03EBC0035B6800
:100790001A6811B142F0030201E022F002021A606D
:1007A00010BD00BF18250000212810B52BD8164A0F
:1007B00002EBC00301295B68144601D004290FD164
:1007C00054F83020012082F880024FF4A2721A609F
:1007D0001A6804290CBF42F0200222F0200211E026
:1007E00052F83000002280F8802211B94FF4807254
:1007F00008E0022902D140F2031203E0032908BFF6
:100800004FF481721A6010BD18250000212870B5C0
:100810000E4659D8042A57D8DFE802F00709050325
:100820000B00092306E00A2304E0082302E00C235E
:1008300000E00B231D04254B03EBC0035C6821681B
:1008400011F4E06101D1FFF7AFFF214B214AC3F85A
:100850009C21214AC3F8A021204AC3F8A421204AA0
:10086000C3F8A8211F4AC3F8AC2104F14043A3F503
:1008700092227C2A10D9A3F594227C2A0ED9A3F5C2
:1008800096227C2A0CD9A3F598227C2A0AD9A3F5B2
:100890009A237C2B08D970BD134B06E0134B04E060
:1008A000134B02E0134B00E0134B72B6226822F4A4
:1008B0007022226042F08071C4F3840243F8226007
:1008C00045EA0103236062B670BD00BF1825000031
:1008D0000082FF1FD187FF1FA587FF1F7987FF1F9A
:1008E0004D87FF1F2187FF1F0088FF1F3888FF1FCC
:1008F0008888FF1FB888FF1FD888FF1F72B60B4B70
:100900000B4A0C491B681268096862B6490102D596
:10091000322B88BF0132C3F5BB336020FF33B3FBFA
:10092000F0F34FF47A7000FB0230704718E000E0FB
:100930008C92FF1F04ED00E038B50446FFF7DEFFA0
:10094000054624B938BD013C0AD005F57A75FFF794
:10095000D5FF401BB0F57A7FF5D200F01BFEF6E71D
:1009600038BDFFFF214B4FF4000210B51A604FF065
:1009700080721A604FF000721A604FF080621A6045
:100980004FF000621A601A4B1A4A1B4C00204BF6BB
:10099000FF7118605960282313609360136193619D
:1009A00013629362136393630922226004F58054F7
:1009B000043420606160A360236144F8042C04F5D2
:1009C000FE2420600D4801600D490B608B600D4BCB
:1009D0001A6000F0BBFE3220FFF7AEFF00F0EAFB2A
:1009E0004FF4AF70BDE81040FFF7A6BF08E100E08C
:1009F000048003400C8003400080034008800B40CB
:100A00000C800B4000800B40F0B50C4C0C4E237852
:100A10000C4D43F0020706EBC70283F00103506060
:100A20002A782370002A14BFC820882082F001028F
:100A300040EA01412A7046F83710F0BDF892FF1FD6
:100A40000080FF1F7093FF1F431E032B10B510D8AB
:100A500072B6094A52F8230048B1416842F823109F
:100A60000649048831F81320121B21F8132062B6BE
:100A700010BD002010BD00BFE892FF1F5895FF1F5A
:100A8000013803280AD872B6054B53F820300020ED
:100A900013B101305B68FBE762B670470020704716
:100AA0003C93FF1F70B472B6174C184901231A19F2
:100AB00012F8012C12071DD59A00144E51F832502D
:100AC0002DB906EB431308305860114B09E042F092
:100AD000010251F832506DB906EBC203083058607C
:100AE0000C4B46F832300C4A1378013B137062B657
:100AF00070BC70470133052BD9D162B6064B00227A
:100B00001A7070BC00F0CABB502600000080FF1FA6
:100B100088004000C80040006693FF1F431E032B5F
:100B200010B532D8194A400140F01000104472B696
:100B3000174AD45C032C0BD8DFE804F01804020732
:100B4000052414E00830022411E0083004240EE0EB
:100B50001048114A50F8234014B940F8231002E01D
:100B600052F82300416042F823100DE00324D454CE
:100B700010F0080F01F108030A88436014BFC8236E
:100B8000882343EA0243036062B610BD0080FF1F62
:100B9000A492FF1F3C93FF1F4C93FF1F2DE9F74FBB
:100BA000A94B1C78E4B214F0040F1D461AD0A74BD1
:100BB0001B78A3B1A64A117801F0FF0321B1013BD4
:100BC000DBB2137003B900BEA24A117801F0FF0333
:100BD00029B1013BDBB213700BB900F0B7FC9A4AA4
:100BE0000423137004F0080303F0FF02002B00F04D
:100BF0007182994B994C1B78DBB21F094FEA93061F
:100C000040F0EC8104EBC603596854F83630C3F366
:100C10008303013B0C2B00F2DD81DFE813F09A0126
:100C20009A01DB01DB01DB01DB01DB01DB01B90147
:100C3000DB01DB01DB010D000A68894D89484B6847
:100C40002A6001216B60DFF85082874B017092B2FD
:100C500040F2816044F8363082424FF00003C8F819
:100C600000302361A36117D8B2F5D06F80F02781DF
:100C7000B2F5817F00F0D88006D8802A00F0C180CC
:100C8000822A00F0C28035E140F202339A4200F03D
:100C90000781B2F5A06F1AE042F22100824200F013
:100CA00055810CD8B2F5086F00F0A580B2F5106F31
:100CB00040F02081654AA97811701E460AE042F290
:100CC00021218A4200F00E8142F221339A4200F043
:100CD00015810FE1A219136A1F0603D5506A08385F
:100CE00000F0DCFA0836802EF4D1DFF8B0915F4FC7
:100CF0000026CA4659F826004FEA860B30B14268F2
:100D0000009200F0CBFA009A1046F7E7584B594A88
:100D10004AF80B004BF803005BF8020040B1416851
:100D20000192009100F0BAFA0099019A0846F5E79D
:100D3000514B42F80B0023F816003B784F4A023B18
:100D40004BF80200032B07D8DFE803F0020402048B
:100D5000002300E001233B700136042E07F1010758
:100D6000C8D1474B474E404F00221A704FF0010B3D
:100D70009946454A0BEB06015A4411F8011C9200B2
:100D800011F0080F11704FEA8B0A24D000F068FAB6
:100D900038B104EB4B1208303C4B506044F83A3009
:100DA00006E099F8002044F83A00013289F8002062
:100DB00000F056FA4AF0010230B104EBC2010830EB
:100DC000486044F8327006E044F8320099F8002098
:100DD000013289F800204AF002010BF1010B4AF0C0
:100DE000030A0022BBF1050F44F8312044F83A20F1
:100DF000BFD1134683E0154B254E1B7833700B464D
:100E000080E0234E337073707BE0AA8802F07F028B
:100E1000042A6FD81E4E9200337073701D4B9B5C7A
:100E20009C076ED531706CE0AA8802F07F02042A1C
:100E300060D86B88002B5DD11649920011440A7866
:100E400022F0020239E000BF802007406F93FF1FAD
:100E5000F992FF1F7193FF1F902007400080FF1F32
:100E60005C93FF1F7093FF1FC8004000A492FF1FF8
:100E70009492FF1F3C93FF1F5895FF1F4C93FF1F39
:100E80006693FF1F5026000030C801108800400004
:100E90006793FF1FC02007409092FF1FE892FF1F3B
:100EA000AA8802F07F02042A24D86B8813BBA549C4
:100EB000920011440A7842F002020A701FE06A8828
:100EC000A988A14B5E68AEB11888904208D15888B5
:100ED000884205D1120A032A0CBF33781B8911E01E
:100EE0000C33EFE7994A1168994A1160994AA97839
:100EF000117004E0934B0F221A7027E000231E4666
:100F000000E00223EC889C4228BF1C46402C25466A
:100F100028BF402530462946FFF776FD641B2E4446
:100F200003D1402D12D1254603E0402C254628BF91
:100F3000402530462946FFF767FD641B2E4401D14A
:100F4000402D03D1844BC8F800601C800122834BE4
:100F50003FE0834B1A8842F221039A4214D1814A1E
:100F60000023C85C98540133072BFAD17D4B1B68D2
:100F7000862B08BF7C4B4FF0000108BF0F220846AC
:100F800008BF1A70FFF740FD784B44F8363021E077
:100F9000774F3E68A6B1DFF8C081B8F80040402C1A
:100FA000254628BF402530462946FFF72DFD601B0A
:100FB00080B2A8F8000008B9402D00D1701938603F
:100FC000674B1A88B2F5A06F04D100225A709A7844
:100FD000684B1A70614B01221A7077E004EBC6056A
:100FE000013F6A6803F00803A2F10800FFB203F0B2
:100FF000FF0E002B36D000F051F95F485F4A50F8E1
:101000002710E9B14B6840F8273001F108036B6005
:10101000D35D032B0BD8DFE803F00204060803239B
:1010200004E0022302E0052300E00423D35515F079
:10103000080F0A8814BFC823882343EA024343E009
:10104000D35D032B07D8DFE803F0414102040023FE
:1010500006E0012304E015F0080F14BF0323022368
:10106000D35533E054F836301B0C99B222F8081CE3
:1010700023B3434B22F806EC42F804EC53F8272044
:10108000DFF82CE112B943F8270002E05EF82730C0
:1010900058603C4A4EF8270032F817300B4422F8CB
:1010A000173000F0DDF810B10830686006E0364A0D
:1010B00044F8360013780133137007E0334A2B4BA2
:1010C00015F0080F08BF134644F83630304A08239D
:1010D000137065E5E0071ED520492C482D4C0223EE
:1010E0000B702D4B1A702D4B186098602C48D860EF
:1010F0001A619A615C60134B0D2018702948FF2318
:1011000003702B700274284A1370284B9F221A70A8
:1011100001230B7012E0210604D50A4B0D221A7030
:1011200080232B70A20705D51E4A1378DBB21370FB
:1011300002232B70E30644BF10232B7003B0BDE8DD
:10114000F08F00BFC0200740542600008C92FF1F84
:101150006895FF1F8093FF1F6493FF1F9420074033
:101160005C93FF1F6095FF1FF992FF1FC8004000AE
:101170009092FF1F982007403C93FF1FA492FF1FEF
:10118000E892FF1F5895FF1F6693FF1F88004000DD
:1011900080200740A892FF1FF892FF1F0080FF1FCA
:1011A000FC92FF1F882007408C20074084200740C6
:1011B0009492FF1F10B500F0B7FC002319481946A0
:1011C0001950C4180833882B164A6160F8D11649A3
:1011D0000B6843F480230B60144BC2F30721197092
:1011E000C2F30741120E19751A76114AFF231370C4
:1011F0000021137202F8703C0123137582F88010ED
:1012000013710C4B70226FF450711A700B444FF431
:1012100000721A6003F1C04303F5C82310221A704C
:1012200010BD00BF0080FF1F348004409C20074099
:101230008020074049E400E000F0A2B800F076B852
:1012400000F04EB800F08EB800F052B900F02CB9A2
:101250000846114600F0ACB8084600F019B97047CE
:1012600010B572B60B480268B2FA82F10B2902DDA2
:1012700062B6002010BD4FF00043CB4022EA0302CB
:10128000026062B6044C48234B43E0180022E2504F
:10129000426010BDF088FF1FBC83FF1F0C4B48222B
:1012A000C31AB3FBF2F30B2B11D80A4A127822B1FE
:1012B000094A12780AB1FFF7F5BB72B607494FF039
:1012C000004222FA03F30A681A430A6062B67047C2
:1012D000BC83FF1F6693FF1F6F93FF1FF088FF1FE4
:1012E00010B5104C23686BB1206843885A1C034426
:1012F0001C7A03889A4212D3FFF7D0FF094B0022D1
:101300001A600DE0084B1B7813B94FF0FF3010BD89
:101310000320FFF799FB20600028E5D1F5E7428024
:10132000204610BD7C93FF1F6F93FF1F10B50B4C21
:10133000236813B122686AB902E0094B1B7813B91C
:101340004FF0FF3010BD0320FFF77EFB2060002828
:10135000F0D1F5E753881344187A10BD7C93FF1F32
:101360006F93FF1F044B9888044B1A681AB11388B7
:1013700052889B1A184470475895FF1F7C93FF1F93
:1013800010B5094B1B786BB1084C206818B1FFF7FA
:1013900085FF002323600320FFF756FB10B1FFF702
:1013A0007DFFF8E710BD00BF6F93FF1F7C93FF1F09
:1013B0002DE9F84F314DDFF8D490012382460C46D9
:1013C0002B700E464F46002E53D0D9F800303BBB51
:1013D000DFF8B0B04AF2F928294B1B7803F0FF017F
:1013E0000BB9297015E00420FFF74AFB072807D83E
:1013F00001232B70FFF734FF386088B91F4B18703A
:10140000B8F1010802D09BF8003033B11D4B012226
:101410001A704FF0FF30BDE8F88F00F0BBF8DBE743
:10142000184B0021197039684B88C3F14000B04255
:1014300028BF304603EB000E0B44A1F802E0361A39
:1014400007330AEB0008C24504D01AF8010B03F871
:10145000010FF8E74B883F2B06D940230B8004206F
:10146000FFF75CFB00233B60074B05221A70C24666
:10147000A9E72E702046BDE8F88F00BF7293FF1FCA
:101480006F93FF1F7893FF1F7193FF1F7493FF1FCC
:1014900007B502AB012103F8010D1846FFF788FFDD
:1014A00003B05DF804FBFFFF38B50E4C0E4D012371
:1014B00023702B687BB90D4B1B7813B9002020706B
:1014C00038BD0420FFF7DCFA0728F7D8FFF7C8FE7D
:1014D00028600028F2D02B68588800232370C0F1C0
:1014E000400038BD7293FF1F7493FF1F6F93FF1F5F
:1014F0002DE9F041114B1B78F3B1114F114B3C68B2
:10150000114D01261E7098464CB1002663882E703E
:10151000214623800420FFF701FB3E6009E0FFF72E
:101520009FFE014620B104202C70FFF7F7FA00E07F
:101530002E70002388F80030BDE8F0816F93FF1F04
:101540007493FF1F7293FF1F7193FF1F38B50E4BEB
:101550001B7803F0FF05ABB90C4C216831B14B8807
:101560000B800420FFF7DAFA256038BDFFF778FE1C
:10157000014620B10420BDE83840FFF7CFBA044B44
:1015800001221A7038BD00BF7293FF1F7493FF1FB2
:101590007193FF1F38B51E4C2378002B36D10123E1
:1015A0002370FFF7DFFE08B1FFF759FE00F02AF9BC
:1015B00008B100F0C7F800F0B3F908B100F0C3F8C3
:1015C00000F03CFA08B100F0BFF800232370EFF3FD
:1015D0000583DBB9EFF3108272B60E4D286810B1A7
:1015E0000D4C217811B18AB962B638BD0123237040
:1015F00043692B600BB1996101E008490B6002B9A6
:1016000062B60025457783689847257038BD00BFCE
:101610008193FF1F9493FF1F9893FF1F9093FF1FC9
:10162000EFF3108072B6B0FA80F04009704700B155
:1016300062B67047F8B50C4E0C4F0025FFF7F0FF6F
:10164000346802466CB1636933600BB19D6100E0A0
:101650003B601046FFF7EBFF6577A368204698478D
:10166000ECE7FFF7E4FFF8BD8493FF1F8893FF1FAB
:10167000FFF7E0BF15490B6830B513B98360C3604D
:1016800009E004681A68944207D20025121B83609F
:10169000C560D8601A60086015E002681C68996827
:1016A000121B026061B10C68A2420B46F5D2816048
:1016B000C968C160D860C168A21A88601A6002E077
:1016C0008160C36098600223037530BD8C93FF1F57
:1016D00070B5164D2C680026BCB1236813B1013BD0
:1016E000236012E0A26802B1D36020692A60036817
:1016F00026751B6822460021984763681BB123604A
:101700002046FFF7B7FF2C68E6E7FFF789FF084B95
:1017100000221C681A60FFF78AFF2CB1A5682046DA
:10172000FFF7A8FF2C46F8E770BD00BF8C93FF1FA2
:101730009C93FF1F024A136801331360FFF7C8BF71
:101740008C92FF1F704770477047FFFF10B5204B0A
:101750002048214960221A70E1225A701F4B204A0A
:101760001C78204B082C01D1012402E00A2C03D163
:1017700039240460132005E00C2C0CBF35243D24D3
:1017800004601220086014601860174B17491B781A
:10179000174A03B101230B601360164B164A1978E0
:1017A000164B012901D880210BE0042901D884219E
:1017B00007E0082901D8852103E0102994BF86217C
:1017C0008721116019600E4B01221A7010BD00BFF5
:1017D0000040074008B003400CB00340F488FF1FEE
:1017E00008B00B400CB00B40A193FF1F20B003408A
:1017F00020B00B40F588FF1F24B0034024B00B40FD
:10180000A093FF1F054B1878054B1A78C0B2D3B2CE
:10181000984238BF4030C01A704700BF2A94FF1F5B
:10182000A993FF1FF0B534490B7913F0300F2FD077
:1018300072B68B7D03F0FF0423B9CB7940234B7440
:1018400062B625E062B62D482D4A037812782D4FF6
:10185000DBB2D2B20546581C4028CE7928BF002002
:101860009042F6B21CBF3E540346601E10F0FF04C7
:10187000F1D1D9B229702449096849B1934236BFE0
:10188000C2F140029B1A9B18272BC4BF01230B7087
:10189000194AD178C9B20D061ED513791C061BD57D
:1018A0001A4B1B481D7803781A4EEDB2DBB2AB42DF
:1018B0000AD00133402B28BF00231479F45CE4B232
:1018C000D471147D072CF2D9DBB203700A4B1A795C
:1018D000100644BF7C22DA7049060CD5064B1A79F3
:1018E000520608D50C4A002111700C4A126802B148
:1018F00011703C22DA70F0BD00A006402A94FF1F50
:10190000A993FF1FEA93FF1FA493FF1F3094FF1FAB
:101910002B94FF1FAA93FF1FA893FF1F2C94FF1F58
:10192000054B1878054B1A78C0B2D3B2984238BF2D
:101930004030C01A704700BFA294FF1F3994FF1FA8
:10194000F0B534490B7913F0300F2FD072B68B7D80
:1019500003F0FF0423B9CB7940234B7462B625E032
:1019600062B62D482D4A037812782D4FDBB2D2B2E1
:101970000546581C4028CE7928BF00209042F6B278
:101980001CBF3E540346601E10F0FF04F1D1D9B2D3
:1019900029702449096849B1934236BFC2F1400217
:1019A0009B1A9B18272BC4BF01230B70194AD178AF
:1019B000C9B20D061ED513791C061BD51A4B1B4840
:1019C0001D7803781A4EEDB2DBB2AB420AD0013378
:1019D000282B28BF00231479F45CE4B2D471147D61
:1019E000072CF2D9DBB203700A4B1A79100644BFF8
:1019F0007C22DA7049060CD5064B1A79520608D5B6
:101A00000C4A002111700C4A126802B111703C227C
:101A1000DA70F0BD00B00640A294FF1F3994FF1F9A
:101A20006294FF1F3494FF1FA894FF1FA394FF1F0D
:101A30003A94FF1F3894FF1FA494FF1F054B18789A
:101A4000054B1A78C0B2D3B2984238BF4030C01AA2
:101A5000704700BF1A95FF1FB194FF1F10B5284BA8
:101A60001A79920620D52749DA790B78264801336E
:101A700000783F2BC8BF0023834218BF2348D2B24F
:101A80001EBFC254DAB20A70214A116861B1214AFC
:101A90001278D2B2934236BFC2F140029B1A9B1811
:101AA000272BC4BF01230B701549CA78D2B2140684
:101AB00016D50B79180613D5174B164C18782378C2
:101AC000DBB2984202D16C23CB7009E00133282BA2
:101AD00028BF00231148C05CDBB2C0B2C8712370BC
:101AE00051060CD5064B1A79520608D50C4A00212E
:101AF00011700C4A126802B111702C22DA7010BDFC
:101B000000C006401A95FF1FB194FF1FDA94FF1F13
:101B1000AC94FF1F1B95FF1F2095FF1FB294FF1F62
:101B2000B094FF1F1C95FF1F1FB572B6154B702296
:101B30001A70154A412111700F2102F8011C8022F0
:101B40001A701A781206FCD5104B186862B6104B42
:101B5000984298BF0A2301AC98BF58430A222146F5
:101B6000FEF7D0FD0B4A0023E15C21B101330A2BC3
:101B700022F8021BF8D1084A01335B00137004B04D
:101B800010BD00BF000002400700024008000240F4
:101B90007F9698008089FF1F7E89FF1F014B186880
:101BA000704700BFC08DFF1F70B50F4E0F4D761BE5
:101BB000B61018BF002405D0013455F8043B9847EF
:101BC000A642F9D10A4E0B4D761B00F06FFDB61000
:101BD00018BF002406D0013455F8043B9847A642AC
:101BE000F9D170BD70BD00BFB8260000B826000056
:101BF000C4260000B8260000024B0146186800F019
:101C000003B800BFC08DFF1F2DE9F04F01F10B0598
:101C1000162D83B0064640F29F8035F0070500F18F
:101C2000BF80A94200F2BC8000F0A6FAB5F5FC7FA7
:101C3000C0F09C826B0A00F0BA80042B00F2838112
:101C4000A80900F1390E4FEA4E033830C44F07EBB4
:101C50008303A3F108015C68A14207D1ACE0002A2C
:101C600080F2AC80E468A14200F0A680636823F0B3
:101C700003035A1B0F2AF2DDB9493C6901F1080E32
:101C8000744500F0B381636823F003035A1B0F2AE5
:101C900000F39981002AC1F814E0C1F810E080F245
:101CA0009E80B3F5007F80F06781DB0803F1010CB3
:101CB00001229B1002FA03F34A6851F83C80C4F8F1
:101CC000088001EBCC091A43A9F10803E3604A60DC
:101CD00041F83C40C8F80C40831001249C409442D9
:101CE00000F28A80144206D120F0030064001442FE
:101CF00000F10400FAD007EBC009CC468046DCF8BE
:101D00000C108C4507D173E1002A80F28181C968EB
:101D10008C4500F06D814B6823F003035A1B0F2A9A
:101D2000F2DD0C46D1F80CC054F8088F4B1945F081
:101D300001054D6042F00101C8F80CC03046CCF8F6
:101D400008807B613B61C3F80CE0C3F808E0596090
:101D50009A5000F013FA1FE0102921D800F00CFA75
:101D60001025062302207E4F07EB8303A3F1080210
:101D70005C68944200F045816368E168A56823F0DF
:101D80000303234430465A68E96042F001028D6043
:101D90005A6000F0F3F90834204603B0BDE8F08F34
:101DA00000240C232046336003B0BDE8F08F80236D
:101DB0004FF0400E3F2049E770465DE72344E1685D
:101DC0005A68A56842F00102E96030468D605A60A9
:101DD00000F0D4F90834204603B0BDE8F08F234466
:101DE00030465A6842F001025A6000F0C7F90834E0
:101DF000204603B0BDE8F08FBC68636823F0030899
:101E0000A84504D3C5EB08030F2B00F38C80554B7A
:101E1000DFF860911A68D9F8003001332A4404EBE6
:101E2000080A00F0608102F580520F3222F47F62CE
:101E300022F00F0211463046019200F0A1F9B0F1F4
:101E4000FF3F8346019A00F05881824500F2FC80F2
:101E5000454B1968DA451144196000F05381D9F8EF
:101E60000000DFF810E101301BBFCAEB0B0A514440
:101E7000CEF800B019601BF0070100F01781C1F126
:101E80000800C1F58051834408315A44C2F30B0263
:101E9000C2EB010949463046019300F071F9431C39
:101EA000019B00F03F81CBEB00024A4442F001026B
:101EB0001968C7F808B04944BC42CBF8042019603F
:101EC000DFF8A49016D0B8F10F0F40F2FD806268E1
:101ED000A8F10C0323F00703E01802F001024FF011
:101EE000050E1A430F2B6260C0F804E0C0F808E04A
:101EF00000F21C811D4BBC681A68914288BF1960B2
:101F00001B4B1A689142626888BF196022F0030275
:101F10009542A2EB050301D80F2B04DC304600F0FC
:101F20002DF9002438E7621943F0010345F001055B
:101F300065603046BA60536000F020F908342046EE
:101F400003B0BDE8F08F142B71D9542B00F2A4809C
:101F5000280B00F16F0E4FEA4E036E3076E600BF9D
:101F6000C48DFF1F2C95FF1F3095FF1F2895FF1F65
:101F70002495FF1FD091FF1F5A0A042A5ED9142A04
:101F800000F2B38002F15C0149005B3207EB810C87
:101F900057F82110DFF8DC81ACF1080C8C4500F01B
:101FA00088804A6822F00302934202D289688C45F5
:101FB000F7D1D1F80CC07A68C4F80CC0A160CCF895
:101FC0000840CC6088E6631942F0010745F001053E
:101FD000656030464B610B61C3F80CE0C3F808E064
:101FE0005F609A50083400F0C9F8D5E64A6873E695
:101FF00008F1010818F0030F0CF1080C7FF47FAE14
:1020000030E0DC68A34208BF02303FF435AEB3E6EF
:102010000B440C465A68C96854F8085F42F0010244
:102020005A603046E9608D6000F0A8F8B4E603F12C
:102030005C0E03F15B004FEA4E0307E69A0902F1DA
:10204000390149003832A1E7BC424A4B3FF400AFA6
:102050009C68626822F003025AE759F808399945EA
:1020600040F0828010F0030F00F1FF30F5D17B6863
:1020700023EA04037B6064009C423FF6BDAE002C63
:102080003FF4BAAE1C4240467FF435AE64001C42B9
:1020900000F10400FAD02EE6B3F5AA7F18D8E80BB9
:1020A00000F1780E4FEA4E037730CFE54FF48051C0
:1020B000EBE60121D8F80430921001FA02F21A433B
:1020C000C8F80420614677E70123CBF8043025E700
:1020D00040F25452934220D8A80C00F17D0E4FEAF2
:1020E0004E037C30B2E51032A4E6542A26D81A0BEF
:1020F00002F16F0149006E3248E7BC68626822F065
:10210000030205E7CAF30B0000287FF4A8AE42449F
:10211000BB6842F001025A60ECE6FE234FF07F0EEE
:102120007E2093E501224FF00009C1E604F1080189
:10213000304600F0A9F8D9F80010DBE6B2F5AA7F26
:1021400005D8DA0B02F17801490077321EE740F238
:1021500054518A4205D89A0C02F17D0149007C3223
:1021600014E7FE217E2211E77B6884E7E808431C20
:102170005B00F8E5C48DFF1F704700BF704700BFCC
:1021800038B5074C0023054608462360FEF7A4FA3D
:10219000431C00D038BD2368002BFBD02B6038BD1A
:1021A0006C95FF1F024B13B1024800F005B8704751
:1021B00000000000C5210000002301461A46184611
:1021C00000F04AB938B5074D074C2C1BA41005D0B8
:1021D000013C55F8043D9847002CF9D1BDE8384042
:1021E00000F070BA0000000000000000F8B5234FB6
:1021F0000C460646FFF7C0FFBB685D6825F0030587
:10220000291B01F6EF7121F47F6121F00F01A1F587
:102210008054B4F5805F07DB00213046FFF7B0FF44
:10222000BB682B44984204D03046FFF7A7FF00203C
:10223000F8BD61423046FFF7A3FF01300DD0104BCF
:10224000BA6819682D1B45F001053046091B556019
:102250001960FFF793FF0120F8BD00213046FFF71A
:102260008FFFBA68831A0F2BDEDD064C0449246801
:1022700043F00103001B53600860D5E7C48DFF1FC6
:102280003095FF1FD091FF1F002945D02DE9F04167
:102290000D468046FFF770FF55F8047C6A4927F029
:1022A0000103A5F10804E2188E685068B24220F0DC
:1022B000030062D0FE0750600BD455F8087CE41B85
:1022C00001F1080EA56875453B446FD0E768EF60E3
:1022D000BD6015186D68ED0742D543F001026260DC
:1022E000E350B3F5007F18D2DB085A1C4D6851F853
:1022F0003270A76001209B1000FA03F301EBC200CB
:102300001D430838E0604D6041F83240FC604046B3
:10231000BDE8F041FFF732BF70475A0A042A53D88C
:102320009A0902F139077F0002F1380501EB8700B5
:1023300051F827204449083890424DD0516821F087
:1023400003018B4202D292689042F7D1D068E060DC
:10235000A2608460D4604046BDE8F041FFF70EBF44
:1023600095683A4FBD4203443FD0D068E86043F0DF
:10237000010285606260E350B3E7FF07034407D4BE
:1023800055F8082CA41A1344A068E268C260906053
:102390002F4A126843F00100934260608C60B6D30C
:1023A0002C4B40461968FFF721FFB0E71118496828
:1023B000C90744D49168D268CA60034443F001005D
:1023C00091606060E350A2E7142A17D802F15C071D
:1023D0007F0002F15B05A9E7AA104B68012505FA09
:1023E00002F213434B600246B1E743F001024C6135
:1023F0000C61E560A5606260E35088E7542A06D866
:102400001A0B02F16F077F0002F16E058EE7B2F53D
:10241000AA7F06D8DA0B02F178077F0002F1770570
:1024200084E740F25450824206D89A0C02F17D07AC
:102430007F0002F17C0579E7FE277E2576E743F0F1
:1024400001026260E35062E7C48DFF1FCC8DFF1F65
:10245000CC91FF1F2C95FF1F2DE9F047254C2568D7
:10246000D5F848410646884692469946C4B3606806
:102470001F2817DC431C76B104EB80050122C5F848
:1024800088A0D4F8881182401143022EC4F8881124
:10249000C5F808911ED00230636044F82080002007
:1024A000BDE8F087144B03B34FF4C870FFF7A4FBEB
:1024B0000446D0B1D5F84831002780E88800C5F837
:1024C000484138460123C4F88871C4F88C71002E45
:1024D000E1D0D1E7D4F88C110A43C4F88C21DAE7B3
:1024E00005F5A674C5F84841C1E74FF0FF30BDE8D7
:1024F000F08700BFA8260000F91B000054776F4B3F
:102500006E6F627320456E636F64657220546573ED
:10251000743A000D0AFFFFFF4008FE4340A004404C
:102520004408FE4344A004400018FE4300C0044099
:102530003000FE43309004403400FE4334900440A9
:102540001C18FE431CC004401018FE4310C0044079
:102550000818FE4308C004400C18FE430CC0044099
:102560000C10FE430CB004401010FE4310B00440A9
:102570001810FE4318B004401C10FE431CB0044069
:102580001410FE4314B004400418FE4304C0044079
:102590000010FE4300B004400008FE4300A00440C9
:1025A0000408FE4304A004400C08FE430CA00440B1
:1025B0000808FE4308A004401418FE4314C0044059
:1025C0001818FE4318C004400410FE4304B0044031
:1025D0000810FE4308B004401400FE431490044069
:1025E0004C08FE434CA004400420FE4304D00440A9
:1025F0002410FE4324B004402010FE4320B00440C9
:102600002810FE4328B004402C10FE432CB0044098
:102610000020FE4300D004404808FE4348A0044088
:102620001000FE4310900440000000000000000075
:1026300059120000511200004D1200004912000012
:1026400045120000411200003D1200003912000046
:102650000015191500010000F688FF1F1200000088
:10266000000200002089FF1F43000000000300005B
:102670007A89FF1F00000000010309040889FF1F79
:1026800000000000020309046489FF1F000000002D
:10269000030309047E89FF1F000000000000000002
:1026A00000000000000000009889FF1FF8B500BF7F
:1026B000F8BC08BC9E467047A52100003504000008
:0426C00049050000C8
:0426C400F8B500BFA6
:1026C80038B5084B084D1C681C604CB194FAA4F34B
:1026D800B3FA83F355F823309847631E1C40F4D1AE
:1026E80038BD00BFA0D00440D888FF1F38B5084BBC
:1026F800084D1C681C604CB194FAA4F3B3FA83F338
:1027080055F823309847631E1C40F4D138BD00BFEC
:10271800A0C00440B888FF1F38B5084B084D1C6896
:102728001C604CB194FAA4F3B3FA83F355F8233040
:102738009847631E1C40F4D138BD00BFA0B00440C8
:102748008888FF1F38B5084B084D1C681C604CB1C1
:1027580094FAA4F3B3FA83F355F823309847631E29
:102768001C40F4D138BD00BFA0A004403888FF1F2A
:1027780038B5084B084D1C681C604CB194FAA4F39A
:10278800B3FA83F355F823309847631E1C40F4D1FD
:1027980038BD00BFA09004400088FF1F7095FF1F40
:1027A80045070000450700004507000045070000F1
:1027B80045070000450700004507000045070000E1
:1027C80045070000450700004507000045070000D1
:1027D80045070000450700004507000045070000C1
:1027E80045070000450700004507000045070000B1
:1027F80045070000450700004507000045070000A1
:102808004507000045070000450700004507000090
:102818004507000045070000450700004507000080
:102828004507000045070000450700004507000070
:102838004507000045070000450700004507000060
:102848004507000045070000450700004507000050
:102858004507000045070000450700004507000040
:102868004507000045070000450700004507000030
:102878004507000045070000450700004507000020
:102888003026000000000000E803000000000000FF
:10289800FFFFFFFF0A041201010102000040C016F9
:1028A8008304000201020301180354006500650057
:1028B8006E00730079006400750069006E006F0097
:1028C80009024300020100C03209040000010202AB
:1028D8000100052400100105240101010424020659
:1028E80005240600010705820310004009040100C1
:1028F800020A0000000705030240000007058402E1
:102908004000000016035500530042002000530009
:1029180065007200690061006C00040309040C037F
:10292800000000000000000000000000000000009F
:10293800000000000000000000000000848CFF1F61
:10294800EC8CFF1F548DFF1F0000000000000000EA
:10295800000000000000000000000000000000006F
:10296800000000000000000000000000000000005F
:10297800000000000000000000000000000000004F
:10298800000000000000000000000000000000003F
:10299800000000000000000000000000000000002F
:1029A800000000000000000000000000000000001F
:1029B800000000000000000000000000000000000F
:1029C80000000000000000000000000000000000FF
:1029D80000000000000000000000000000000000EF
:1029E80001000000000000000E33CDAB34126DE68C
:1029F800ECDE05000B0000000000000000000000F5
:102A080000000000000000000000000000000000BE
:102A180000000000000000000000000000000000AE
:102A2800000000000000000000000000000000009E
:102A3800000000000000000000000000000000008E
:102D68009889FF1F0000000000000000C48DFF1FAD
:102D7800C48DFF1FCC8DFF1FCC8DFF1FD48DFF1F6F
:102D8800D48DFF1FDC8DFF1FDC8DFF1FE48DFF1F1F
:102D9800E48DFF1FEC8DFF1FEC8DFF1FF48DFF1FCF
:102DA800F48DFF1FFC8DFF1FFC8DFF1F048EFF1F7E
:102DB800048EFF1F0C8EFF1F0C8EFF1F148EFF1F2B
:102DC800148EFF1F1C8EFF1F1C8EFF1F248EFF1FDB
:102DD800248EFF1F2C8EFF1F2C8EFF1F348EFF1F8B
:102DE800348EFF1F3C8EFF1F3C8EFF1F448EFF1F3B
:102DF800448EFF1F4C8EFF1F4C8EFF1F548EFF1FEB
:102E0800548EFF1F5C8EFF1F5C8EFF1F648EFF1F9A
:102E1800648EFF1F6C8EFF1F6C8EFF1F748EFF1F4A
:102E2800748EFF1F7C8EFF1F7C8EFF1F848EFF1FFA
:102E3800848EFF1F8C8EFF1F8C8EFF1F948EFF1FAA
:102E4800948EFF1F9C8EFF1F9C8EFF1FA48EFF1F5A
:102E5800A48EFF1FAC8EFF1FAC8EFF1FB48EFF1F0A
:102E6800B48EFF1FBC8EFF1FBC8EFF1FC48EFF1FBA
:102E7800C48EFF1FCC8EFF1FCC8EFF1FD48EFF1F6A
:102E8800D48EFF1FDC8EFF1FDC8EFF1FE48EFF1F1A
:102E9800E48EFF1FEC8EFF1FEC8EFF1FF48EFF1FCA
:102EA800F48EFF1FFC8EFF1FFC8EFF1F048FFF1F79
:102EB800048FFF1F0C8FFF1F0C8FFF1F148FFF1F26
:102EC800148FFF1F1C8FFF1F1C8FFF1F248FFF1FD6
:102ED800248FFF1F2C8FFF1F2C8FFF1F348FFF1F86
:102EE800348FFF1F3C8FFF1F3C8FFF1F448FFF1F36
:102EF800448FFF1F4C8FFF1F4C8FFF1F548FFF1FE6
:102F0800548FFF1F5C8FFF1F5C8FFF1F648FFF1F95
:102F1800648FFF1F6C8FFF1F6C8FFF1F748FFF1F45
:102F2800748FFF1F7C8FFF1F7C8FFF1F848FFF1FF5
:102F3800848FFF1F8C8FFF1F8C8FFF1F948FFF1FA5
:102F4800948FFF1F9C8FFF1F9C8FFF1FA48FFF1F55
:102F5800A48FFF1FAC8FFF1FAC8FFF1FB48FFF1F05
:102F6800B48FFF1FBC8FFF1FBC8FFF1FC48FFF1FB5
:102F7800C48FFF1FCC8FFF1FCC8FFF1FD48FFF1F65
:102F8800D48FFF1FDC8FFF1FDC8FFF1FE48FFF1F15
:102F9800E48FFF1FEC8FFF1FEC8FFF1FF48FFF1FC5
:102FA800F48FFF1FFC8FFF1FFC8FFF1F0490FF1F74
:102FB8000490FF1F0C90FF1F0C90FF1F1490FF1F21
:102FC8001490FF1F1C90FF1F1C90FF1F2490FF1FD1
:102FD8002490FF1F2C90FF1F2C90FF1F3490FF1F81
:102FE8003490FF1F3C90FF1F3C90FF1F4490FF1F31
:102FF8004490FF1F4C90FF1F4C90FF1F5490FF1FE1
:103008005490FF1F5C90FF1F5C90FF1F6490FF1F90
:103018006490FF1F6C90FF1F6C90FF1F7490FF1F40
:103028007490FF1F7C90FF1F7C90FF1F8490FF1FF0
:103038008490FF1F8C90FF1F8C90FF1F9490FF1FA0
:103048009490FF1F9C90FF1F9C90FF1FA490FF1F50
:10305800A490FF1FAC90FF1FAC90FF1FB490FF1F00
:10306800B490FF1FBC90FF1FBC90FF1FC490FF1FB0
:10307800C490FF1FCC90FF1FCC90FF1FD490FF1F60
:10308800D490FF1FDC90FF1FDC90FF1FE490FF1F10
:10309800E490FF1FEC90FF1FEC90FF1FF490FF1FC0
:1030A800F490FF1FFC90FF1FFC90FF1F0491FF1F6F
:1030B8000491FF1F0C91FF1F0C91FF1F1491FF1F1C
:1030C8001491FF1F1C91FF1F1C91FF1F2491FF1FCC
:1030D8002491FF1F2C91FF1F2C91FF1F3491FF1F7C
:1030E8003491FF1F3C91FF1F3C91FF1F4491FF1F2C
:1030F8004491FF1F4C91FF1F4C91FF1F5491FF1FDC
:103108005491FF1F5C91FF1F5C91FF1F6491FF1F8B
:103118006491FF1F6C91FF1F6C91FF1F7491FF1F3B
:103128007491FF1F7C91FF1F7C91FF1F8491FF1FEB
:103138008491FF1F8C91FF1F8C91FF1F9491FF1F9B
:103148009491FF1F9C91FF1F9C91FF1FA491FF1F4B
:10315800A491FF1FAC91FF1FAC91FF1FB491FF1FFB
:10316800B491FF1FBC91FF1FBC91FF1F000002001C
:04317800FFFFFFFF57
:00000001FF
