:1000000000800020BD010000D9170000A5170000E6
:10001000A5170000A5170000A5170000A5170000F0
:10002000A5170000A5170000A5170000D9170000AC
:10003000D9170000A5170000D91500009D16000073
:10004000D9170000D9170000D9170000D9170000F0
:10005000D9170000D9170000D9170000D9170000E0
:10006000D9170000D9170000D9170000D9170000D0
:10007000D9170000D9170000D9170000D9170000C0
:10008000D9170000D9170000D9170000D9170000B0
:10009000D9170000D9170000D9170000D9170000A0
:1000A000D9170000D9170000D9170000D917000090
:1000B000D9170000D9170000D9170000D917000080
:1000C000D9170000D9170000D9170000D917000070
:1000D000D9170000D9170000D9170000D917000060
:1000E000D9170000D9170000D9170000D917000050
:1000F000D917000011180000D91700002D190000B1
:10010000D9170000491A0000D9170000D9170000BC
:10011000D9170000D9170000D9170000D91700001F
:10012000D9170000D9170000D9170000D91700000F
:10013000D9170000D9170000D9170000D9170000FF
:10014000D9170000D9170000D9170000D9170000EF
:10015000D9170000D9170000D9170000D9170000DF
:10016000291D00007D0D0000D9170000D9170000DF
:10017000D9170000D9170000D9170000D9170000BF
:10018000D9170000D9170000D9170000D9170000AF
:10019000D9170000D9170000D9170000D91700009F
:1001A000D9170000D9170000D9170000D91700008F
:1001B000D9170000D9170000D9170000564B4CF290
:1001C000205210B51A804DF628121A8000BF00BFC9
:1001D00001F006FB514B4FF010621A60504A9A60D2
:1001E000504ADA60504A136813F4807301BF4F49D4
:1001F0000B604FF4A85313604D4B4E491A7810070B
:1002000042BF1A7842F008021A704B4B2A221A7029
:100210004A4A4B4B8B4204D252F8040F43F8040B6A
:10022000F8E7484B484A0021934202D243F8041BA6
:10023000FAE7464A4648002350F8231042F82310B4
:1002400001336F2BF8D1434B434A802103F8011B44
:100250009342FBD1414B3D4A1A60414B8A221A70AE
:10026000A3F5805324225A70A0221A709A7991071C
:10027000FCD59A79D206FCD43A4A937903F00C0360
:10028000082B384BF9D103221A7140225A719A79FE
:100290009406FCD533498A79324B5006FBD5324A55
:1002A000324911600221516020221A709A7902F0BD
:1002B0000C020C2AFAD12E4B2E4A1A602E4B2F4AD2
:1002C0001A6000225A60072243F8042C2C4AC3F813
:1002D0000C2D62B600F064FC144B1B68DA0705D5E0
:1002E000284800F079FA284B284A1A60284B1B78D6
:1002F0005B0609D5244C254B22689A4204D121483B
:1003000000F06AFA0023236002F032FC01F06EFA7A
:1003100000F058FAFEE700BF0E2005403080044090
:10032000823F04000100002B10D0034014D0034092
:1003300002D00740B08DFF1F00E00740302E0000C4
:100340002087FF1FB08DFF1F6891FF1F0082FF1FD6
:100350000000000000E400E05FE400E008ED00E0E1
:100360000050064000400640448004400000030165
:1003700004800440C010050014E000E0FF76010096
:10038000000020204524475B1CE00340A5C3945A8D
:1003900000F00740FFFFFFFFFFFFFFFFFFFFFFFF32
:1003A000FFFFFFFFFFFFFFFFFFFFFFFFFFFFFFFF5D
:1003B000FFFFFFFFFFFFFFFFFFFFFFFFFFFFFFFF4D
:1003C000FFFFFFFFFFFFFFFFFFFFFFFFFFFFFFFF3D
:1003D000FFFFFFFFFFFFFFFFFFFFFFFFFFFFFFFF2D
:1003E000FFFFFFFFFFFFFFFFFFFFFFFFFFFFFFFF1D
:1003F000FFFFFFFFFFFFFFFFFFFFFFFFFFFFFFFF0D
:10040000FFFFFFFFFFFFFFFFFFFFFFFFDEF9FFFF23
:1004100010B5054C237833B9044B13B10448AFF33E
:1004200000800123237010BDB08DFF1F000000006D
:10043000342E0000084B10B51BB108490848AFF333
:1004400000800848036803B910BD074B002BFBD0A0
:10045000BDE81040184700BF00000000B48DFF1F2A
:10046000342E0000B08DFF1F0000000008B50121F0
:100470000D2000F0E1F901210D20BDE8084000F059
:10048000BBB9FFFF10B51E21174800F0FDF800248E
:100490002146164800F044F80134322000F06AFB8F
:1004A000292CF5D1104800F059F94FF4FA6000F00A
:1004B00061FB6FF01D010C4800F0E6F800242146B6
:1004C0000A4800F02DF8013C322000F053FB14F1F3
:1004D000290FF4D1044800F041F94FF4FA60BDE867
:1004E000104000F047BB00BFD88DFF1FCC8DFF1F11
:1004F00008B5044800F00AF80348BDE8084000F0D9
:1005000059B800BFCC8DFF1FD88DFF1F10B5044612
:1005100001F05CFB0321204601F0CAFB204610BD20
:100520002829A8BF28216FF027039942B8BF194690
:10053000C1F12D01490001F0D3BB10B50368017A68
:100540001C7843681A78437A1A40837A0C4203F085
:10055000030318BF43F004030AB143F008039A10E1
:10056000013B82720D2B14D8DFE803F0070A0D0A55
:100570001310070710130A0D0A07C368013307E0B9
:10058000C368013B04E0C368023301E0C368023B77
:10059000C36010BD08B5024B9868FFF7CEFF08BDD9
:1005A000CC90FF1F08B5024B5868FFF7C6FF08BD87
:1005B000CC90FF1FF8B50022002300250446C0E9B7
:1005C000042385600221012000F036F9022108464B
:1005D00000F032F9284A936803F50071A161012106
:1005E00084F82010126984F8211002F50070E0618F
:1005F00065624FF47A410139FDD193F8003292F8E7
:1006000000221E4E1E49D20703F0010344BF43F0EF
:100610000203DBB2012584F8223004F1180704221A
:100620000120776000F03AF9042284F82850154937
:10063000B760022000F032F994F828302B4484F897
:10064000283029460A2000F0F7F82946092000F052
:10065000F3F82946082000F0EFF800210A2000F006
:1006600095F90021092000F0C7F82946082000F07C
:10067000C3F82046F8BD00BFAC2C0000CC90FF1F93
:10068000A5050000950500006429F8B5A8BF642100
:100690006FF063039942B8BF194664314FF4FF739A
:1006A0005943C82391FBF3F1A1F1FF03A1F1FF042A
:1006B000594259410546E70F082084EAE47600F0E4
:1006C0009BF8A6EBE4763946092000F095F8314610
:1006D0000A2000F05BF90CB12F706E60F8BDFFFFCF
:1006E000F7B51B4B85681B680193019E751B092D8F
:1006F000044602D8D0E9040128E090F82830012B04
:1007000004D872B61830FFF718FF00E072B6606ABE
:1007100062B6A66072B60023636262B601F0CAFCDC
:1007200000220C4B01F056FE064628460F4602F00A
:1007300077F8094902F080F901F0CEFC02460B4639
:100740003046394601F046FEC4E9040103B0F0BD6D
:10075000088EFF1F0080864000606A4710B504467F
:100760000021082000F048F82178092081F00101DB
:1007700000F042F861680A2000F008F92046FFF70F
:10078000AFFF0022002301F08BFF10B12378002B74
:10079000F4D02046FFF7A4FF0022002301F062FFFF
:1007A00010B12378002BE9D10121082000F024F8B2
:1007B0002178092000F020F800210A20BDE810402F
:1007C00000F0E4B808B5FFF751FEFFF75BFE00F05C
:1007D00095FEFAE77047FFFF044B054900221A60B7
:1007E0000A60044A106010221A60704714D0034057
:1007F00004D0034000D00340212810B518D80D4B79
:1008000053F8302092F880423CB1012311B182F8B4
:10081000803010BD82F8003110BD03EBC0035B686F
:100820001A6811B142F0030201E022F002021A60DC
:1008300010BD00BFAC2C0000212810B52BD8164AE3
:1008400002EBC00301295B68144601D004290FD1D3
:1008500054F83020012082F880024FF4A2721A600E
:100860001A6804290CBF42F0200222F0200211E095
:1008700052F83000002280F8802211B94FF48072C3
:1008800008E0022902D140F2031203E0032908BF65
:100890004FF481721A6010BDAC2C0000212870B595
:1008A0000E4659D8042A57D8DFE802F00709050395
:1008B0000B00092306E00A2304E0082302E00C23CE
:1008C00000E00B231D04254B03EBC0035C6821688B
:1008D00011F4E06101D1FFF7AFFF214B214AC3F8CA
:1008E0009C21214AC3F8A021204AC3F8A421204A10
:1008F000C3F8A8211F4AC3F8AC2104F14043A3F573
:1009000092227C2A10D9A3F594227C2A0ED9A3F531
:1009100096227C2A0CD9A3F598227C2A0AD9A3F521
:100920009A237C2B08D970BD134B06E0134B04E0CF
:10093000134B02E0134B00E0134B72B6226822F413
:100940007022226042F08071C4F3840243F8226076
:1009500045EA0103236062B670BD00BFAC2C000005
:100960000082FF1FD187FF1FA587FF1F7987FF1F09
:100970004D87FF1F2187FF1FFC87FF1F3488FF1F44
:100980008488FF1FB488FF1FD488FF1F282838B52C
:1009900004464D4B0FD11B780B2B03D8C3F10C032E
:1009A000994003E00C2B1CBF0C3B19410846BDE8E5
:1009B000384000F0DBBE1A780125002905FA02F361
:1009C00001DC002102E08B4204D82946FFF714FF26
:1009D000294674E00338C3B2012B01D83B4B06E033
:1009E000202C01D0192C01D1394B00E0394B1B6868
:1009F00003FB0113D3401D2859D8DFE800F03F4521
:100A0000392758581B215858585858585858582D55
:100A1000330F1558515858585858584B2E4A136090
:100A200040F244422D4B40E02D4A136040F24442D4
:100A30002C4B3AE02C4A136040F244422B4B34E0FA
:100A40002B4A136040F244422A4B2EE02A4A13609C
:100A500040F24442294B28E0294A136040F24442C4
:100A6000284B22E0284A136040F24442274B1CE006
:100A7000274A136040F24442264B16E0264A136090
:100A80004FF45172254B10E0254A13604FF4517218
:100A9000244B0AE0244A13604FF45172234B04E0C4
:100AA000234A1360234B4FF451721A6038BD7F29DB
:100AB000D4BF002101212046FFF79EFE01212046E0
:100AC000BDE83840FFF7B8BEDC88FF1F0890034040
:100AD00008800B40088003401080034004B00440AD
:100AE0001880034008B00440208003400CB004404C
:100AF0002880034010B004403080034010C0044000
:100B00003880034014C004404080034018C00440B3
:100B1000488003401CC004401090034030900440C3
:100B2000189003403490044010800B4048A00440CB
:100B300018800B404CA0044072B60B4B0B4A0C497A
:100B40001B681268096862B6490102D5322B88BF5A
:100B50000132C3F5BB336020FF33B3FBF0F34FF436
:100B60007A7000FB0230704718E000E0088EFF1F2B
:100B700004ED00E038B50446FFF7DEFF054624B972
:100B800038BD013C0AD005F57A75FFF7D5FF401B4B
:100B9000B0F57A7FF5D200F0B1FCF6E738BDFFFF83
:100BA000214B4FF4000210B51A604FF080721A60AA
:100BB0004FF000721A604FF080621A604FF00062CE
:100BC0001A601A4B1A4A1B4C00204BF6FF71186032
:100BD00059602823136093601361936113629362D9
:100BE000136393630922226004F580540434206067
:100BF0006160A360236144F8042C04F5FE242060A6
:100C00000D4801600D490B608B600D4B1A6000F0C0
:100C100051FD3220FFF7AEFF00F0BCFB4FF4AF7088
:100C2000BDE81040FFF7A6BF08E100E004800340E4
:100C30000C8003400080034008800B400C800B4078
:100C400000800B40F0B50C4C0C4E23780C4D43F05B
:100C5000020706EBC70283F0010350602A78237075
:100C6000002A14BFC820882082F0010240EA014116
:100C70002A7046F83710F0BD748EFF1F0080FF1FEA
:100C8000EC8EFF1F70B472B6174C184901231A1965
:100C900012F8012C12071DD59A00144E51F832504B
:100CA0002DB906EB431308305860114B09E042F0B0
:100CB000010251F832506DB906EBC203083058609A
:100CC0000C4B46F832300C4A1378013B137062B675
:100CD00070BC70470133052BD9D162B6064B002298
:100CE0001A7070BC00F0B6BBBC2D00000080FF1F66
:100CF00088004000C8004000E28EFF1F431E032B07
:100D000010B532D8194A400140F01000104472B6B4
:100D1000174AD45C032C0BD8DFE804F01804020750
:100D2000052414E00830022411E0083004240EE009
:100D30001048114A50F8234014B940F8231002E03B
:100D400052F82300416042F823100DE00324D454EC
:100D500010F0080F01F108030A88436014BFC8238C
:100D6000882343EA0243036062B610BD0080FF1F80
:100D7000208EFF1FB88EFF1FC88EFF1F2DE9F74F73
:100D8000A94B1C78E4B214F0040F1D461AD0A74BEF
:100D90001B78A3B1A64A117801F0FF0321B1013BF2
:100DA000DBB2137003B900BEA24A117801F0FF0351
:100DB00029B1013BDBB213700BB900F07BFB9A4AFF
:100DC0000423137004F0080303F0FF02002B00F06B
:100DD0007182994B994C1B78DBB21F094FEA93063D
:100DE00040F0EC8104EBC603596854F83630C3F385
:100DF0008303013B0C2B00F2DD81DFE813F09A0145
:100E00009A01DB01DB01DB01DB01DB01DB01B90165
:100E1000DB01DB01DB010D000A68894D89484B6865
:100E20002A6001216B60DFF85082874B017092B21B
:100E300040F2816044F8363082424FF00003C8F837
:100E400000302361A36117D8B2F5D06F80F02781FD
:100E5000B2F5817F00F0D88006D8802A00F0C180EA
:100E6000822A00F0C28035E140F202339A4200F05B
:100E70000781B2F5A06F1AE042F22100824200F031
:100E800055810CD8B2F5086F00F0A580B2F5106F4F
:100E900040F02081654AA97811701E460AE042F2AE
:100EA00021218A4200F00E8142F221339A4200F061
:100EB00015810FE1A219136A1F0603D5506A08387D
:100EC00000F0C8FA0836802EF4D1DFF8B0915F4FF9
:100ED0000026CA4659F826004FEA860B30B1426810
:100EE000009200F0B7FA009A1046F7E7584B594ABB
:100EF0004AF80B004BF803005BF8020040B1416870
:100F00000192009100F0A6FA0099019A0846F5E7CF
:100F1000514B42F80B0023F816003B784F4A023B36
:100F20004BF80200032B07D8DFE803F002040204A9
:100F3000002300E001233B700136042E07F1010776
:100F4000C8D1474B474E404F00221A704FF0010B5B
:100F50009946454A0BEB06015A4411F8011C9200D0
:100F600011F0080F11704FEA8B0A24D000F054FAE8
:100F700038B104EB4B1208303C4B506044F83A3027
:100F800006E099F8002044F83A00013289F8002080
:100F900000F042FA4AF0010230B104EBC20108301D
:100FA000486044F8327006E044F8320099F80020B6
:100FB000013289F800204AF002010BF1010B4AF0DE
:100FC000030A0022BBF1050F44F8312044F83A200F
:100FD000BFD1134683E0154B254E1B7833700B466B
:100FE00080E0234E337073707BE0AA8802F07F02AA
:100FF000042A6FD81E4E9200337073701D4B9B5C99
:101000009C076ED531706CE0AA8802F07F02042A3A
:1010100060D86B88002B5DD11649920011440A7884
:1010200022F0020239E000BF80200740EB8EFF1F54
:10103000758EFF1FED8EFF1F902007400080FF1F61
:10104000D88EFF1FEC8EFF1FC8004000208EFF1FB0
:10105000108EFF1FB88EFF1F5491FF1FC88EFF1FF9
:10106000E28EFF1FBC2D000030C801108800400038
:10107000E38EFF1FC02007400C8EFF1F648EFF1FF2
:10108000AA8802F07F02042A24D86B8813BBA549E2
:10109000920011440A7842F002020A701FE06A8846
:1010A000A988A14B5E68AEB11888904208D15888D3
:1010B000884205D1120A032A0CBF33781B8911E03C
:1010C0000C33EFE7994A1168994A1160994AA97857
:1010D000117004E0934B0F221A7027E000231E4684
:1010E00000E00223EC889C4228BF1C46402C254689
:1010F00028BF402530462946FFF7A4FD641B2E4437
:1011000003D1402D12D1254603E0402C254628BFAF
:10111000402530462946FFF795FD641B2E4401D13A
:10112000402D03D1844BC8F800601C800122834B02
:101130003FE0834B1A8842F221039A4214D1814A3C
:101140000023C85C98540133072BFAD17D4B1B68F0
:10115000862B08BF7C4B4FF0000108BF0F220846CA
:1011600008BF1A70FFF76EFD784B44F8363021E067
:10117000774F3E68A6B1DFF8C081B8F80040402C38
:10118000254628BF402530462946FFF75BFD601BFA
:1011900080B2A8F8000008B9402D00D1701938605D
:1011A000674B1A88B2F5A06F04D100225A709A7862
:1011B000684B1A70614B01221A7077E004EBC60588
:1011C000013F6A6803F00803A2F10800FFB203F0D0
:1011D000FF0E002B36D000F03DF95F485F4A50F813
:1011E0002710E9B14B6840F8273001F108036B6024
:1011F000D35D032B0BD8DFE803F0020406080323BA
:1012000004E0022302E0052300E00423D35515F097
:10121000080F0A8814BFC823882343EA024343E027
:10122000D35D032B07D8DFE803F04141020400231C
:1012300006E0012304E015F0080F14BF0323022386
:10124000D35533E054F836301B0C99B222F8081C01
:1012500023B3434B22F806EC42F804EC53F8272062
:10126000DFF82CE112B943F8270002E05EF82730DE
:1012700058603C4A4EF8270032F817300B4422F8E9
:10128000173000F0C9F810B10830686006E0364A3F
:1012900044F8360013780133137007E0334A2B4BC0
:1012A00015F0080F08BF134644F83630304A0823BB
:1012B000137065E5E0071ED520492C482D4C02230C
:1012C0000B702D4B1A702D4B186098602C48D8600D
:1012D0001A619A615C60134B0D2018702948FF2336
:1012E00003702B700274284A1370284B9F221A70C7
:1012F00001230B7012E0210604D50A4B0D221A704F
:1013000080232B70A20705D51E4A1378DBB2137019
:1013100002232B70E30644BF10232B7003B0BDE8FB
:10132000F08F00BFC0200740C02D0000088EFF1FB7
:101330006491FF1FF88EFF1FE08EFF1F942007406F
:10134000D88EFF1F5C91FF1F758EFF1FC8004000E5
:101350000C8EFF1F98200740B88EFF1F208EFF1FA6
:10136000648EFF1F5491FF1FE28EFF1F8800400014
:1013700080200740248EFF1F748EFF1F0080FF1FF8
:10138000788EFF1F882007408C200740842007406C
:10139000108EFF1F10B500F0BDFB00231948194641
:1013A0001950C4180833882B164A6160F8D11649C1
:1013B0000B6843F480230B60144BC2F307211970B0
:1013C000C2F30741120E19751A76114AFF231370E2
:1013D0000021137202F8703C0123137582F880100B
:1013E00013710C4B70226FF450711A700B444FF450
:1013F00000721A6003F1C04303F5C82310221A706B
:1014000010BD00BF0080FF1F348004409C200740B7
:101410008020074049E400E010B572B60B4802682E
:10142000B2FA82F10B2902DD62B6002010BD4FF046
:101430000043CB4022EA0302026062B6044C482318
:101440004B43E0180022E250426010BDE088FF1FCD
:10145000BC83FF1F0C4B4822C31AB3FBF2F30B2BC8
:1014600011D80A4A127822B1094A12780AB1FFF754
:1014700009BC72B607494FF0004222FA03F30A682A
:101480001A430A6062B67047BC83FF1FE28EFF1FDB
:10149000EB8EFF1FE088FF1F044B9888044B1A68EF
:1014A0001AB1138852889B1A184470475491FF1F31
:1014B000F48EFF1F38B50E4B1B7803F0FF05ABB958
:1014C0000C4C216831B14B880B800420FFF716FCCF
:1014D000256038BDFFF7A0FF014620B10420BDE81C
:1014E0003840FFF70BBC044B01221A7038BD00BF17
:1014F000EE8EFF1FF08EFF1FED8EFF1F38B51E4CC6
:101500002378002B36D101232370FFF7C5FF08B1E4
:1015100000F03AFB00F06CF908B100F0C7F800F0F9
:10152000F5F908B100F0C3F800F07EFA08B100F058
:10153000BFF800232370EFF30583DBB9EFF31082CC
:1015400072B60E4D286810B10D4C217811B18AB9D0
:1015500062B638BD0123237043692B600BB19961DA
:1015600001E008490B6002B962B60025457783683F
:101570009847257038BD00BFF98EFF1F0C8FFF1FE5
:10158000108FFF1F088FFF1FEFF3108072B6B0FAA5
:1015900080F04009704700B162B67047F8B50C4E54
:1015A0000C4F0025FFF7F0FF346802466CB1636909
:1015B00033600BB19D6100E03B601046FFF7EBFF2D
:1015C0006577A36820469847ECE7FFF7E4FFF8BD8E
:1015D000FC8EFF1F008FFF1FFFF7E0BF15490B6850
:1015E00030B513B98360C36009E004681A68944297
:1015F00007D20025121B8360C560D8601A6008609E
:1016000015E002681C689968121B026061B10C68E1
:10161000A2420B46F5D28160C968C160D860C1683A
:10162000A21A88601A6002E08160C3609860022399
:10163000037530BD048FFF1F70B5164D2C68002652
:10164000BCB1236813B1013B236012E0A26802B170
:10165000D36020692A60036826751B682246002132
:10166000984763681BB123602046FFF7B7FF2C68DB
:10167000E6E7FFF789FF084B00221C681A60FFF7B6
:101680008AFF2CB1A5682046FFF7A8FF2C46F8E793
:1016900070BD00BF048FFF1F148FFF1F024A136825
:1016A00001331360FFF7C8BF088EFF1F70477047F4
:1016B0007047FFFF10B5204B2048214960221A7067
:1016C000E1225A701F4B204A1C78204B082C01D174
:1016D000012402E00A2C03D139240460132005E020
:1016E0000C2C0CBF35243D240460122008601460CB
:1016F0001860174B17491B78174A03B101230B6079
:101700001360164B164A1978164B012901D880210F
:101710000BE0042901D8842107E0082901D885219C
:1017200003E0102994BF86218721116019600E4BB8
:1017300001221A7010BD00BF0040074008B00340EE
:101740000CB00340E488FF1F08B00B400CB00B4006
:10175000198FFF1F20B0034020B00B40E588FF1F0A
:1017600024B0034024B00B40188FFF1F094A1368B0
:1017700043F480531360084B1A78084B0AB1802257
:1017800000E0C0221A7080F30C00054B00B21880F4
:10179000704700BF2C800440198FFF1F21C00C40F0
:1017A00000C00C4008B50B4D2C462B68580301D5E2
:1017B000FFF7E4FA2368590501D500F029F82368FA
:1017C0001A0501D500F0B2F82368DB04EDD500F06E
:1017D0003BF9EAE73480044008B5FFF7E3FFFFFF79
:1017E000014B10221A807047002005407047FFFF10
:1017F000054B1878054B1A78C0B2D3B2984238BF5F
:101800004030C01A704700BFA28FFF1F218FFF1FFB
:10181000F0B534490B7913F0300F2FD072B68B7DB1
:1018200003F0FF0423B9CB7940234B7462B625E063
:1018300062B62D482D4A037812782D4FDBB2D2B212
:101840000546581C4028CE7928BF00209042F6B2A9
:101850001CBF3E540346601E10F0FF04F1D1D9B204
:1018600029702449096849B1934236BFC2F1400248
:101870009B1A9B18272BC4BF01230B70194AD178E0
:10188000C9B20D061ED513791C061BD51A4B1B4871
:101890001D7803781A4EEDB2DBB2AB420AD00133A9
:1018A000402B28BF00231479F45CE4B2D471147D7A
:1018B000072CF2D9DBB203700A4B1A79100644BF29
:1018C0007C22DA7049060CD5064B1A79520608D5E7
:1018D0000C4A002111700C4A126802B111703C22AE
:1018E000DA70F0BD00A00640A28FFF1F218FFF1FFE
:1018F000628FFF1F1C8FFF1FA88FFF1FA38FFF1F6B
:10190000228FFF1F208FFF1FA48FFF1F054B18780A
:10191000054B1A78C0B2D3B2984238BF4030C01AD3
:10192000704700BF1A90FF1FB18FFF1FF0B53449F9
:101930000B7913F0300F2FD072B68B7D03F0FF04BC
:1019400023B9CB7940234B7462B625E062B62D48AB
:101950002D4A037812782D4FDBB2D2B20546581CBF
:101960004028CE7928BF00209042F6B21CBF3E54DA
:101970000346601E10F0FF04F1D1D9B2297024494A
:10198000096849B1934236BFC2F140029B1A9B18C5
:10199000272BC4BF01230B70194AD178C9B20D0699
:1019A0001ED513791C061BD51A4B1B481D780378CE
:1019B0001A4EEDB2DBB2AB420AD00133282B28BF5E
:1019C00000231479F45CE4B2D471147D072CF2D9AD
:1019D000DBB203700A4B1A79100644BF7C22DA701E
:1019E00049060CD5064B1A79520608D50C4A002137
:1019F00011700C4A126802B111703C22DA70F0BD0D
:101A000000B006401A90FF1FB18FFF1FDA8FFF1F33
:101A1000AC8FFF1F2090FF1F1B90FF1FB28FFF1F77
:101A2000B08FFF1F1C90FF1F054B1878054B1A78CD
:101A3000C0B2D3B2984238BF4030C01A704700BF1E
:101A40009290FF1F2990FF1F10B5284B1A7992061C
:101A500020D52749DA790B782648013300783F2BC7
:101A6000C8BF0023834218BF2348D2B21EBFC2544E
:101A7000DAB20A70214A116861B1214A1278D2B2F1
:101A8000934236BFC2F140029B1A9B18272BC4BF5A
:101A900001230B701549CA78D2B2140616D50B79FA
:101AA000180613D5174B164C18782378DBB29842DA
:101AB00002D16C23CB7009E00133282B28BF00230F
:101AC0001148C05CDBB2C0B2C871237051060CD59E
:101AD000064B1A79520608D50C4A002111700C4A9F
:101AE000126802B111702C22DA7010BD00C00640DD
:101AF0009290FF1F2990FF1F5290FF1F2490FF1FFD
:101B00009390FF1F9890FF1F2A90FF1F2890FF1FA0
:101B10009490FF1F1FB572B6154B70221A70154AAC
:101B2000412111700F2102F8011C80221A701A78CD
:101B30001206FCD5104B186862B6104B984298BF3D
:101B40000A2301AC98BF58430A22214600F01DF831
:101B50000B4A0023E15C21B101330A2B22F8021B5E
:101B6000F8D1084A01335B00137004B010BD00BF08
:101B70000000024007000240080002407F969800E3
:101B80007089FF1F6E89FF1F704730B50346002024
:101B9000B3FBF2F402FB1433092B94BF3033373319
:101BA000DBB20B5423460CB10130F1E70A1823468F
:101BB0005470C41AA34206DACC5C1578CD5402F8EE
:101BC00001490133F5E7084630BDFFFF0D49002309
:101BD0000A88037130B501230C241A4207D11A4335
:101BE0000A8009490A8822EA03030B8030BD05797F
:101BF0005B000135013C05719BB2EED1FF230371FF
:101C000030BD00BFA490FF1FA090FF1FF8B51C4679
:101C100003790B2B064615463AD8CFB23846012138
:101C2000FEF70AFE32791B4B9F541B4B44F2506166
:101C300023F812101949012303FA02F20B88134307
:101C4000174A0B80136805EB450504EB4404AD000F
:101C5000A40013F480033580748015D1116841F419
:101C600080011160A2F59032383A4FF6FF71116091
:101C7000536093600B4B42F6A2721A6002F58032F9
:101C80001A60094B20221A70084B4FF480721A60B8
:101C90003079F8BDBE90FF1FA690FF1FA090FF1FD8
:101CA0003C8004400060034048E400E008E100E0BC
:101CB0004FF416634FF40872FFF7A8BF0C23594383
:101CC0000388994203DB43888B42A8BF0B46027905
:101CD0000B2A9CBF014921F812307047A690FF1FC4
:101CE00010B404790B2C1AD8B1F5087F02DB10BCB4
:101CF000FFF7E4BF0388428821EAE171D21AB429D0
:101D0000A8BFB421B32AD5BF02FB01115143B522AC
:101D1000B42291FBF2F11944024B23F8141010BCC9
:101D2000704700BFA690FF1F70B5304B304D1A882A
:101D300095F90000024112F0010F1C4606D02D4B10
:101D40000021185CFEF758FD0C232B7026882A4CC6
:101D50002278002153B20B2B22DC46FA03F0013229
:101D6000C007D2B201D40121F4E701B12370214AA6
:101D70000121D05CFEF740FD94F900301F4A2B7022
:101D800032F813001E4A1168014411601D490A68A7
:101D900002440A601C4A42F6A3711160013323E039
:101DA00001B12370164B1968C1F56A3000F5C07097
:101DB000B0F5966F05DB4EF660228242A8BF024660
:101DC00001E04FF4966211440E48196001680A441C
:101DD00002600D4A42F6A37111601A680B4B9A42D9
:101DE00003D9074A00231360237070BDA090FF1F22
:101DF0008489FF1FBE90FF1FA290FF1FA690FF1FA8
:101E00009C90FF1F0C600340006003407FA903000B
:101E100081F0004102E000BF83F0004330B54FEA9B
:101E200041044FEA430594EA050F08BF90EA020F08
:101E30001FBF54EA000C55EA020C7FEA645C7FEA9B
:101E4000655C00F0E2804FEA5454D4EB5555B8BFBE
:101E50006D420CDD2C4480EA020281EA030382EA2F
:101E6000000083EA010180EA020281EA0303362DC1
:101E700088BF30BD11F0004F4FEA01314FF4801C94
:101E80004CEA113102D0404261EB410113F0004FA6
:101E90004FEA03334CEA133302D0524263EB43035D
:101EA00094EA050F00F0A780A4F10104D5F1200EFB
:101EB0000DDB02FA0EFC22FA05F2801841F1000156
:101EC00003FA0EF2801843FA05F359410EE0A5F12A
:101ED00020050EF1200E012A03FA0EFC28BF4CF05B
:101EE000020C43FA05F3C01851EBE37101F0004511
:101EF00007D54FF0000EDCF1000C7EEB00006EEB1E
:101F00000101B1F5801F1BD3B1F5001F0CD34908A7
:101F10005FEA30004FEA3C0C04F101044FEA4452FE
:101F200012F5800F80F09A80BCF1004F08BF5FEA85
:101F3000500C50F1000041EB045141EA050130BD65
:101F40005FEA4C0C404141EB010111F4801FA4F108
:101F50000104E9D191F0000F04BF01460020B1FA5D
:101F600081F308BF2033A3F10B03B3F120020CDA95
:101F70000C3208DD02F1140CC2F10C0201FA0CF073
:101F800021FA02F10CE002F11402D8BFC2F1200CD8
:101F900001FA02F120FA0CFCDCBF41EA0C0190408E
:101FA000E41AA2BF01EB0451294330BD6FEA0404D7
:101FB0001F3C1CDA0C340EDC04F11404C4F12002C2
:101FC00020FA04F001FA02F340EA030021FA04F3D4
:101FD00045EA030130BDC4F10C04C4F1200220FA2B
:101FE00002F001FA04F340EA0300294630BD21FA69
:101FF00004F0294630BD94F0000F83F4801306BF2F
:1020000081F480110134013D4EE77FEA645C18BF22
:102010007FEA655C29D094EA050F08BF90EA020FB9
:1020200005D054EA000C04BF1946104630BD91EAB1
:10203000030F1EBF0021002030BD5FEA545C05D1B4
:102040004000494128BF41F0004130BD14F58004F3
:102050003CBF01F5801130BD01F0004545F0FE4167
:1020600041F470014FF0000030BD7FEA645C1ABF9C
:10207000194610467FEA655C1CBF0B46024650EAD3
:10208000013406BF52EA033591EA030F41F40021FF
:1020900030BD00BF90F0000F04BF0021704730B585
:1020A0004FF4806404F132044FF000054FF000015A
:1020B00050E700BF90F0000F04BF0021704730B51B
:1020C0004FF4806404F1320410F0004548BF4042F0
:1020D0004FF000013EE700BF42004FEAE2014FEA45
:1020E00031014FEA02701FBF12F07F4393F07F4F20
:1020F00081F06051704792F0000F14BF93F07F4F52
:10210000704730B54FF4607401F0004521F0004194
:1021100020E700BF50EA010208BF704730B54FF01A
:1021200000050AE050EA010208BF704730B511F01F
:10213000004502D5404261EB41014FF4806404F157
:1021400032045FEA915C3FF4DCAE4FF003025FEAD9
:10215000DC0C18BF03325FEADC0C18BF033202EB61
:10216000DC02C2F1200300FA03FC20FA02F001FABB
:1021700003FE40EA0E0021FA02F11444C1E600BF5A
:1021800070B54FF0FF0C4CF4E06C1CEA11541DBF0D
:102190001CEA135594EA0C0F95EA0C0F00F0DEF8D8
:1021A0002C4481EA030621EA4C5123EA4C5350EABD
:1021B000013518BF52EA033541F4801143F480130E
:1021C00038D0A0FB02CE4FF00005E1FB02E506F09F
:1021D0000042E0FB03E54FF00006E1FB03569CF0F4
:1021E000000F18BF4EF0010EA4F1FF04B6F5007FFA
:1021F00064F5407404D25FEA4E0E6D4146EB06066C
:1022000042EAC62141EA55514FEAC52040EA5E50F4
:102210004FEACE2EB4F1FD0C88BFBCF5E06F1ED89E
:10222000BEF1004F08BF5FEA500E50F1000041EBD5
:10223000045170BD06F0004646EA010140EA020082
:1022400081EA0301B4EB5C04C2BFD4EB0C0541EAA4
:10225000045170BD41F480114FF0000E013C00F3B9
:10226000AB8014F1360FDEBF002001F0004170BDDD
:10227000C4F10004203C35DA0C341BDC04F11404F6
:10228000C4F1200500FA05F320FA04F001FA05F282
:1022900040EA020001F0004221F0004110EBD3704F
:1022A00021FA04F642EB06015EEA430E08BF20EA7B
:1022B000D37070BDC4F10C04C4F1200500FA04F31E
:1022C00020FA05F001FA04F240EA020001F00041B0
:1022D00010EBD37041F100015EEA430E08BF20EA23
:1022E000D37070BDC4F1200500FA05F24EEA020E6B
:1022F00020FA04F301FA05F243EA020321FA04F09A
:1023000001F0004121FA04F220EA020000EBD37050
:102310005EEA430E08BF20EAD37070BD94F0000F50
:102320000FD101F00046400041EB010111F4801F84
:1023300008BF013CF7D041EA060195F0000F18BF35
:10234000704703F00046520043EB030313F4801F71
:1023500008BF013DF7D043EA0603704794EA0C0F2B
:102360000CEA135518BF95EA0C0F0CD050EA410641
:1023700018BF52EA4306D1D181EA030101F00041BE
:102380004FF0000070BD50EA410606BF10461946E6
:1023900052EA430619D094EA0C0F02D150EA0136F2
:1023A00013D195EA0C0F05D152EA03361CBF104633
:1023B00019460AD181EA030101F0004141F0FE41D2
:1023C00041F470014FF0000070BD41F0FE4141F456
:1023D000780170BD70B54FF0FF0C4CF4E06C1CEA56
:1023E00011541DBF1CEA135594EA0C0F95EA0C0F0B
:1023F00000F0A7F8A4EB050481EA030E52EA0335C6
:102400004FEA013100F088804FEA03334FF08055E6
:1024100045EA131343EA12634FEA022245EA111513
:1024200045EA10654FEA00260EF000419D4208BFC4
:10243000964244F1FD0404F5407402D25B084FEA71
:102440003202B61A65EB03055B084FEA32024FF41D
:1024500080104FF4002CB6EB020E75EB030E22BF7A
:10246000B61A754640EA0C005B084FEA3202B6EB3A
:10247000020E75EB030E22BFB61A754640EA5C00E9
:102480005B084FEA3202B6EB020E75EB030E22BF79
:10249000B61A754640EA9C005B084FEA3202B6EB7A
:1024A000020E75EB030E22BFB61A754640EADC0039
:1024B00055EA060E18D04FEA051545EA16754FEA9B
:1024C00006164FEAC30343EA52734FEAC2025FEAB9
:1024D0001C1CC0D111F4801F0BD141EA00014FF048
:1024E00000004FF0004CB6E711F4801F04BF014319
:1024F0000020B4F1FD0C88BFBCF5E06F3FF6AFAE35
:10250000B5EB030C04BFB6EB020C5FEA500C50F1C4
:10251000000041EB045170BD0EF0004E4EEA113147
:1025200014EB5C04C2BFD4EB0C0541EA045170BD4E
:1025300041F480114FF0000E013C90E645EA060E92
:102540008DE60CEA135594EA0C0F08BF95EA0C0FC0
:102550003FF43BAF94EA0C0F0AD150EA01347FF408
:1025600034AF95EA0C0F7FF425AF104619462CE7DF
:1025700095EA0C0F06D152EA03353FF4FDAE104642
:10258000194622E750EA410618BF52EA43067FF493
:10259000C5AE50EA41047FF40DAF52EA43057FF423
:1025A000EBAE12E74FF0FF3C06E000BF4FF0010C2E
:1025B00002E000BF4FF0010C4DF804CD4FEA410C92
:1025C0007FEA6C5C4FEA430C18BF7FEA6C5C1BD05F
:1025D00001B050EA410C0CBF52EA430C91EA030FE0
:1025E00002BF90EA020F0020704710F1000F91EA3D
:1025F000030F58BF994208BF90422CBFD8176FEA0B
:10260000E37040F0010070474FEA410C7FEA6C5CD8
:1026100002D150EA013C07D14FEA430C7FEA6C5CDF
:10262000D6D152EA033CD3D05DF8040B704700BF0B
:102630008446104662468C461946634600E000BF59
:1026400001B5FFF7B7FF002848BF10F1000F01BD2B
:102650004DF808EDFFF7F4FF0CBF012000205DF8F6
:1026600008FB00BF4DF808EDFFF7EAFF34BF01207B
:1026700000205DF808FB00BF4DF808EDFFF7E0FF14
:1026800094BF012000205DF808FB00BF4DF808ED65
:10269000FFF7CEFF94BF012000205DF808FB00BFCC
:1026A0004DF808EDFFF7C4FF34BF012000205DF8AE
:1026B00008FB00BF80F0004002E000BF81F0004155
:1026C00042001FBF5FEA410392EA030F7FEA226CD8
:1026D0007FEA236C6AD04FEA1262D2EB1363C1BF68
:1026E000D218414048404140B8BF5B42192B88BFD7
:1026F000704710F0004F40F4000020F07F4018BFFA
:10270000404211F0004F41F4000121F07F4118BF19
:10271000494292EA030F3FD0A2F1010241FA03FCC1
:1027200010EB0C00C3F1200301FA03F100F00043A9
:1027300002D5494260EB4000B0F5000F13D3B0F171
:10274000807F06D340084FEA310102F10102FE2AE0
:1027500051D2B1F1004F40EBC25008BF20F0010050
:1027600040EA03007047490040EB000010F4000FFE
:10277000A2F10102EDD1B0FA80FCACF1080CB2EB91
:102780000C0200FA0CF0AABF00EBC25052421843F0
:10279000BCBFD0401843704792F0000F81F4000195
:1027A00006BF80F400000132013BB5E74FEA410368
:1027B0007FEA226C18BF7FEA236C21D092EA030FD4
:1027C00004D092F0000F08BF0846704790EA010F4E
:1027D0001CBF0020704712F07F4F04D1400028BF7B
:1027E00040F00040704712F100723CBF00F500005D
:1027F000704700F0004343F0FE4040F40000704793
:102800007FEA226216BF08467FEA2363014642023E
:1028100006BF5FEA412390EA010F40F48000704751
:102820004FF0000304E000BF10F0004348BF4042F7
:102830005FEA000C08BF704743F0964301464FF033
:1028400000001CE050EA010208BF70474FF000038F
:102850000AE000BF50EA010208BF704711F00043D0
:1028600002D5404261EB41015FEA010C02BF8446A0
:102870000146002043F0B64308BFA3F18053A3F5FF
:102880000003BCFA8CF2083AA3EBC25310DB01FA46
:1028900002FC634400FA02FCC2F12002BCF1004FCA
:1028A00020FA02F243EB020008BF20F0010070475B
:1028B00002F1200201FA02FCC2F1200250EA4C00AF
:1028C00021FA02F243EB020008BF20EADC707047F5
:1028D0004FF0FF0C1CEAD0521EBF1CEAD15392EA03
:1028E0000C0F93EA0C0F6FD01A4480EA010C4002DF
:1028F00018BF5FEA41211ED04FF0006343EA501039
:1029000043EA5111A0FB01310CF00040B1F5000F7A
:102910003EBF490041EAD3715B0040EA010062F129
:102920007F02FD2A1DD8B3F1004F40EBC25008BF13
:1029300020F00100704790F0000F0CF0004C08BF31
:1029400049024CEA502040EA51207F3AC2BFD2F1FE
:10295000FF0340EAC250704740F400004FF000030C
:10296000013A5DDC12F1190FDCBF00F00040704746
:10297000C2F10002410021FA02F1C2F1200200FA84
:1029800002FC5FEA310040F1000053EA4C0308BF4B
:1029900020EADC70704792F0000F00F0004C02BF9C
:1029A000400010F4000F013AF9D040EA0C0093F017
:1029B000000F01F0004C02BF490011F4000F013B71
:1029C000F9D041EA0C018FE70CEAD15392EA0C0FDF
:1029D00018BF93EA0C0F0AD030F0004C18BF31F04A
:1029E000004CD8D180EA010000F00040704790F020
:1029F000000F17BF90F0004F084691F0000F91F0C4
:102A0000004F14D092EA0C0F01D142020FD193EA89
:102A10000C0F03D14B0218BF084608D180EA010011
:102A200000F0004040F0FE4040F40000704740F0ED
:102A3000FE4040F4400070474FF0FF0C1CEAD052BB
:102A40001EBF1CEAD15392EA0C0F93EA0C0F69D017
:102A5000A2EB030280EA010C49024FEA402037D082
:102A60004FF0805343EA111143EA10130CF0004079
:102A70008B4238BF5B0042F17D024FF4000C8B4269
:102A800024BF5B1A40EA0C00B3EB510F24BFA3EB49
:102A9000510340EA5C00B3EB910F24BFA3EB910319
:102AA00040EA9C00B3EBD10F24BFA3EBD10340EA73
:102AB000DC001B0118BF5FEA1C1CE0D1FD2A3FF6B9
:102AC00050AF8B4240EBC25008BF20F0010070476E
:102AD0000CF0004C4CEA50207F32C2BFD2F1FF0311
:102AE00040EAC250704740F400004FF00003013A42
:102AF00037E792F0000F00F0004C02BF400010F4E6
:102B0000000F013AF9D040EA0C0093F0000F01F0F9
:102B1000004C02BF490011F4000F013BF9D041EA1B
:102B20000C0195E70CEAD15392EA0C0F08D142024E
:102B30007FF47DAF93EA0C0F7FF470AF084676E721
:102B400093EA0C0F04D14B023FF44CAF08466EE7FA
:102B500030F0004C18BF31F0004CCAD130F00042C8
:102B60007FF45CAF31F000437FF43CAF5FE700BF20
:102B700070B50F4E0F4D761BB61018BF002405D050
:102B8000013455F8043B9847A642F9D10A4E0B4D43
:102B9000761B00F041F9B61018BF002406D00134AE
:102BA00055F8043B9847A642F9D170BD70BD00BFEF
:102BB000242E0000242E0000302E0000242E0000C1
:102BC000024B13B1024800F005B870470000000046
:102BD000E12B0000002301461A46184600F014B805
:102BE00038B5074D074C2C1BA41005D0013C55F8F7
:102BF000043D9847002CF9D1BDE8384000F018B9E1
:102C000000000000000000002DE9F047254C256879
:102C1000D5F848410646884692469946C4B360684E
:102C20001F2817DC431C76B104EB80050122C5F890
:102C300088A0D4F8881182401143022EC4F888116C
:102C4000C5F808911ED00230636044F8208000204F
:102C5000BDE8F087144B03B34FF4C870AFF30080A6
:102C60000446D0B1D5F84831002780E88800C5F87F
:102C7000484138460123C4F88871C4F88C71002E8D
:102C8000E1D0D1E7D4F88C110A43C4F88C21DAE7FB
:102C900005F5A674C5F84841C1E74FF0FF30BDE81F
:102CA000F08700BF142E0000000000004008FE4323
:102CB00040A004404408FE4344A004400018FE43E2
:102CC00000C004403000FE43309004403400FE4316
:102CD000349004401C18FE431CC004401018FE43EE
:102CE00010C004400818FE4308C004400C18FE43FE
:102CF0000CC004400C10FE430CB004401010FE4306
:102D000010B004401810FE4318B004401C10FE43DD
:102D10001CB004401410FE4314B004400418FE43D9
:102D200004C004400010FE4300B004400008FE430D
:102D300000A004400408FE4304A004400C08FE4325
:102D40000CA004400808FE4308A004401418FE43E9
:102D500014C004401818FE4318C004400410FE4379
:102D600004B004400810FE4308B004401400FE43C1
:102D7000149004404C08FE434CA004400420FE4341
:102D800004D004402410FE4324B004402010FE432D
:102D900020B004402810FE4328B004402C10FE430D
:102DA0002CB004400020FE4300D004404808FE43FD
:102DB00048A004401000FE4310900440001519156F
:102DC00000010000E688FF1F120000000002000062
:102DD0001089FF1F43000000000300006A89FF1FE5
:102DE0000000000001030904F888FF1F0000000034
:102DF000020309045489FF1F0000000003030904B3
:102E00006E89FF1F000000000000000000000000AD
:102E1000000000008889FF1FF8B500BFF8BC08BC9F
:102E20009E467047C12B000035040000F1040000ED
:042E3000F8B500BF32
:102E340038B5084B084D1C681C604CB194FAA4F3D7
:102E4400B3FA83F355F823309847631E1C40F4D13A
:102E540038BD00BFA0D00440D488FF1F38B5084B4C
:102E6400084D1C681C604CB194FAA4F3B3FA83F3C4
:102E740055F823309847631E1C40F4D138BD00BF79
:102E8400A0C00440B488FF1F38B5084B084D1C6827
:102E94001C604CB194FAA4F3B3FA83F355F82330CD
:102EA4009847631E1C40F4D138BD00BFA0B0044055
:102EB4008488FF1F38B5084B084D1C681C604CB152
:102EC40094FAA4F3B3FA83F355F823309847631EB6
:102ED4001C40F4D138BD00BFA0A004403488FF1FBB
:102EE40038B5084B084D1C681C604CB194FAA4F327
:102EF400B3FA83F355F823309847631E1C40F4D18A
:102F040038BD00BFA0900440FC87FF1FD507000018
:102F1400D5070000D5070000D5070000D50700003D
:102F2400D5070000D5070000D5070000D50700002D
:102F3400D5070000D5070000D5070000D50700001D
:102F4400D5070000D5070000D5070000D50700000D
:102F5400D5070000D5070000D5070000D5070000FD
:102F6400D5070000D5070000D5070000D5070000ED
:102F7400D5070000D5070000D5070000D5070000DD
:102F8400D5070000D5070000D5070000D5070000CD
:102F9400D5070000D5070000D5070000D5070000BD
:102FA400D5070000D5070000D5070000D5070000AD
:102FB400D5070000D5070000D5070000D50700009D
:102FC400D5070000D5070000D5070000D50700008D
:102FD400D5070000D5070000D5070000D50700007D
:102FE400D5070000D5070000D50700000800000041
:102FF400FFFFFFFF0A041201010102000040C01696
:1030040083040002010203011803540065006500F3
:103014006E00730079006400750069006E006F0033
:1030240009024300020100C0320904000001020247
:1030340001000524001001052401010104240206F5
:10304400052406000107058203100040090401005D
:10305400020A00000007050302400000070584027D
:1030640040000000160355005300420020005300A6
:1030740065007200690061006C00040309040C031C
:10308400000000000000000000000000000000003C
:10309400000000000C00000000000000748CFF1F02
:1030A400DC8CFF1F448DFF1F0000000000000000A7
:1030B400000000000000000000000000000000000C
:1030C40000000000000000000000000000000000FC
:1030D40000000000000000000000000000000000EC
:1030E40000000000000000000000000000000000DC
:1030F40000000000000000000000000000000000CC
:1031040000000000000000000000000000000000BB
:1031140000000000000000000000000000000000AB
:10312400000000000000000000000000000000009B
:10313400000000000000000000000000000000008B
:1031440001000000000000000E33CDAB34126DE628
:10315400ECDE05000B000000000000000000000091
:10316400000000000000000000000000000000005B
:10317400000000000000000000000000000000004B
:10318400000000000000000000000000000000003B
:10319400000000000000000000000000000000002B
:00000001FF
